{
  "contractName": "poye",
  "abi": [
    {
      "constant": true,
      "inputs": [
        {
          "name": "",
          "type": "uint256"
        }
      ],
      "name": "messages",
      "outputs": [
        {
          "name": "sender",
          "type": "address"
        },
        {
          "name": "text",
          "type": "string"
        },
        {
          "name": "created_at",
          "type": "uint256"
        }
      ],
      "payable": false,
      "stateMutability": "view",
      "type": "function"
    },
    {
      "inputs": [],
      "payable": false,
      "stateMutability": "nonpayable",
      "type": "constructor"
    },
    {
      "anonymous": false,
      "inputs": [
        {
          "indexed": true,
          "name": "id",
          "type": "uint256"
        },
        {
          "indexed": true,
          "name": "sender",
          "type": "address"
        },
        {
          "indexed": false,
          "name": "text",
          "type": "string"
        },
        {
          "indexed": false,
          "name": "created_at",
          "type": "uint256"
        }
      ],
      "name": "MessageSent",
      "type": "event"
    },
    {
      "constant": true,
      "inputs": [
        {
          "name": "_id",
          "type": "uint256"
        }
      ],
      "name": "getMessage",
      "outputs": [
        {
          "name": "",
          "type": "uint256"
        },
        {
          "name": "",
          "type": "address"
        },
        {
          "name": "",
          "type": "string"
        },
        {
          "name": "",
          "type": "uint256"
        }
      ],
      "payable": false,
      "stateMutability": "view",
      "type": "function"
    },
    {
      "constant": true,
      "inputs": [],
      "name": "getMessages",
      "outputs": [
        {
          "name": "",
          "type": "uint256[20]"
        }
      ],
      "payable": false,
      "stateMutability": "view",
      "type": "function"
    },
    {
      "constant": false,
      "inputs": [
        {
          "name": "_text",
          "type": "string"
        }
      ],
      "name": "sendMessage",
      "outputs": [
        {
          "name": "",
          "type": "uint256"
        }
      ],
      "payable": false,
      "stateMutability": "nonpayable",
      "type": "function"
    }
  ],
  "bytecode": "0x608060405234801561001057600080fd5b506000606060405190810160405280600073ffffffffffffffffffffffffffffffffffffffff16815260200160206040519081016040528060008152508152602001428152509080600181540180825580915050906001820390600052602060002090600302016000909192909190915060008201518160000160006101000a81548173ffffffffffffffffffffffffffffffffffffffff021916908373ffffffffffffffffffffffffffffffffffffffff16021790555060208201518160010190805190602001906100e49291906100f7565b506040820151816002015550505061019c565b828054600181600116156101000203166002900490600052602060002090601f016020900481019282601f1061013857805160ff1916838001178555610166565b82800160010185558215610166579182015b8281111561016557825182559160200191906001019061014a565b5b5090506101739190610177565b5090565b61019991905b8082111561019557600081600090555060010161017d565b5090565b90565b610b78806101ab6000396000f300608060405260043610610062576000357c0100000000000000000000000000000000000000000000000000000000900463ffffffff1680630d80fefd14610067578063469c8110146101475780635ff6cbf31461019657806386f79edb146101e9575b600080fd5b34801561007357600080fd5b50610092600480360381019080803590602001909291905050506102d0565b604051808473ffffffffffffffffffffffffffffffffffffffff1673ffffffffffffffffffffffffffffffffffffffff16815260200180602001838152602001828103825284818151815260200191508051906020019080838360005b8381101561010a5780820151818401526020810190506100ef565b50505050905090810190601f1680156101375780820380516001836020036101000a031916815260200191505b5094505050505060405180910390f35b34801561015357600080fd5b506101806004803603810190808035906020019082018035906020019190919293919293905050506103c1565b6040518082815260200191505060405180910390f35b3480156101a257600080fd5b506101ab6105c5565b6040518082601460200280838360005b838110156101d65780820151818401526020810190506101bb565b5050505090500191505060405180910390f35b3480156101f557600080fd5b506102146004803603810190808035906020019092919050505061087e565b604051808581526020018473ffffffffffffffffffffffffffffffffffffffff1673ffffffffffffffffffffffffffffffffffffffff16815260200180602001838152602001828103825284818151815260200191508051906020019080838360005b83811015610292578082015181840152602081019050610277565b50505050905090810190601f1680156102bf5780820380516001836020036101000a031916815260200191505b509550505050505060405180910390f35b6000818154811015156102df57fe5b90600052602060002090600302016000915090508060000160009054906101000a900473ffffffffffffffffffffffffffffffffffffffff1690806001018054600181600116156101000203166002900480601f0160208091040260200160405190810160405280929190818152602001828054600181600116156101000203166002900480156103b15780601f10610386576101008083540402835291602001916103b1565b820191906000526020600020905b81548152906001019060200180831161039457829003601f168201915b5050505050908060020154905083565b600080600080858590501115156103d757600080fd5b429150600160006060604051908101604052803373ffffffffffffffffffffffffffffffffffffffff16815260200188888080601f0160208091040260200160405190810160405280939291908181526020018383808284378201915050505050508152602001858152509080600181540180825580915050906001820390600052602060002090600302016000909192909190915060008201518160000160006101000a81548173ffffffffffffffffffffffffffffffffffffffff021916908373ffffffffffffffffffffffffffffffffffffffff16021790555060208201518160010190805190602001906104d0929190610a4b565b50604082015181600201555050039050600160003373ffffffffffffffffffffffffffffffffffffffff1673ffffffffffffffffffffffffffffffffffffffff1681526020019081526020016000208190806001815401808255809150509060018203906000526020600020016000909192909190915055503373ffffffffffffffffffffffffffffffffffffffff16817f1f8960ec3ee7087d0552bc042c456f22e713898e21204c04f5885b3942bb079087878660405180806020018381526020018281038252858582818152602001925080828437820191505094505050505060405180910390a3809250505092915050565b6105cd610acb565b6105d5610acb565b60008060006105e2610aef565b60009350600092505b600160003373ffffffffffffffffffffffffffffffffffffffff1673ffffffffffffffffffffffffffffffffffffffff168152602001908152602001600020805490508310801561063c5750601484105b1561087357600160003373ffffffffffffffffffffffffffffffffffffffff1673ffffffffffffffffffffffffffffffffffffffff1681526020019081526020016000208360018060003373ffffffffffffffffffffffffffffffffffffffff1673ffffffffffffffffffffffffffffffffffffffff1681526020019081526020016000208054905003038154811015156106d357fe5b906000526020600020015491506000828154811015156106ef57fe5b9060005260206000209060030201606060405190810160405290816000820160009054906101000a900473ffffffffffffffffffffffffffffffffffffffff1673ffffffffffffffffffffffffffffffffffffffff1673ffffffffffffffffffffffffffffffffffffffff168152602001600182018054600181600116156101000203166002900480601f0160208091040260200160405190810160405280929190818152602001828054600181600116156101000203166002900480156107f85780601f106107cd576101008083540402835291602001916107f8565b820191906000526020600020905b8154815290600101906020018083116107db57829003601f168201915b5050505050815260200160028201548152505090503373ffffffffffffffffffffffffffffffffffffffff16816000015173ffffffffffffffffffffffffffffffffffffffff1614156108665781858560148110151561085457fe5b60200201818152505083806001019450505b82806001019350506105eb565b849550505050505090565b600080606060008061088e610aef565b600160003373ffffffffffffffffffffffffffffffffffffffff1673ffffffffffffffffffffffffffffffffffffffff168152602001908152602001600020878154811015156108da57fe5b90600052602060002001549150600080549050821015156108fa57600080fd5b60008281548110151561090957fe5b9060005260206000209060030201606060405190810160405290816000820160009054906101000a900473ffffffffffffffffffffffffffffffffffffffff1673ffffffffffffffffffffffffffffffffffffffff1673ffffffffffffffffffffffffffffffffffffffff168152602001600182018054600181600116156101000203166002900480601f016020809104026020016040519081016040528092919081815260200182805460018160011615610100020316600290048015610a125780601f106109e757610100808354040283529160200191610a12565b820191906000526020600020905b8154815290600101906020018083116109f557829003601f168201915b50505050508152602001600282015481525050905081816000015182602001518360400151819150955095509550955050509193509193565b828054600181600116156101000203166002900490600052602060002090601f016020900481019282601f10610a8c57805160ff1916838001178555610aba565b82800160010185558215610aba579182015b82811115610ab9578251825591602001919060010190610a9e565b5b509050610ac79190610b27565b5090565b61028060405190810160405280601490602082028038833980820191505090505090565b606060405190810160405280600073ffffffffffffffffffffffffffffffffffffffff16815260200160608152602001600081525090565b610b4991905b80821115610b45576000816000905550600101610b2d565b5090565b905600a165627a7a723058200319ddefd012db78fc1712e0630479d4bb0a0604cfd5f094e8fa3662eb3a5d720029",
  "source": "pragma solidity ^0.4.23;\n\ncontract poye {\n  struct Message {\n    address sender;\n    string text;\n    uint created_at;\n  }\n\n  event MessageSent ( uint indexed id, address indexed sender, string text, uint created_at);\n\n  Message[] public messages;\n  mapping(address => uint[]) userToMessages;\n\n  constructor() public\n  {\n    // To avoid id=0\n    messages.push(Message(0, \"\", now));\n  }\n\n  function getMessage(uint _id) external view returns(uint, address,string, uint)\n  {\n    uint id = userToMessages[msg.sender][_id];\n    require(id < messages.length);\n\tMessage memory message = messages[id];\n    return (id, message.sender, message.text, message.created_at);\n  }\n\n  // returns latest 20 messages between msg.sender and theother.\n  function getMessages() external view returns (uint[20])\n  {\n    uint[20] memory results;\n\tuint counter = 0;\n    for (uint i=0; i < userToMessages[msg.sender].length && counter < 20; i++)\n\t{\n\t  uint mId = userToMessages[msg.sender][userToMessages[msg.sender].length - 1 - i];\n\t  Message memory m = messages[mId];\n\t  if (m.sender == msg.sender)\n\t  {\n\t    results[counter] = mId;\n\t    counter++;\n\t  }\n\t}\n\treturn results;\n  }\n\n  // Send a message from msg.sender to recipient\n  function sendMessage(string _text) external returns(uint)\n  {\n    require(bytes(_text).length > 0);\n    uint timestamp = now;\n    uint id = messages.push(Message(msg.sender,_text, timestamp)) - 1;\n\tuserToMessages[msg.sender].push(id);\n\temit MessageSent(id, msg.sender,_text, timestamp);\n\treturn id;\n  }\n}\n",
  "sourcePath": "/Users/JoeNakamura/poye/contracts/poye.sol",
  "compiler": {
    "name": "solc",
    "version": "0.4.24+commit.e67f0147.Emscripten.clang"
  },
  "schemaVersion": "2.0.1",
  "updatedAt": "2018-08-23T10:40:40.726Z"
}